{
  "address": "0xc7C71c3f679C1136D4b59ee40D4B6068B9162f26",
  "abi": [
    {
      "anonymous": false,
      "inputs": [
        {
          "indexed": false,
          "internalType": "uint256",
          "name": "number",
          "type": "uint256"
        }
      ],
      "name": "CountedTo",
      "type": "event"
    },
    {
      "inputs": [],
      "name": "countDown",
      "outputs": [
        {
          "internalType": "uint256",
          "name": "",
          "type": "uint256"
        }
      ],
      "stateMutability": "nonpayable",
      "type": "function"
    },
    {
      "inputs": [],
      "name": "countUp",
      "outputs": [
        {
          "internalType": "uint256",
          "name": "",
          "type": "uint256"
        }
      ],
      "stateMutability": "nonpayable",
      "type": "function"
    },
    {
      "inputs": [],
      "name": "getCount",
      "outputs": [
        {
          "internalType": "uint256",
          "name": "",
          "type": "uint256"
        }
      ],
      "stateMutability": "view",
      "type": "function"
    }
  ],
  "transactionHash": "0x84706c8630b471f0a04b54b57e7c38962f57d0562932a7c3d9310ce12b829944",
  "args": [],
  "numDeployments": 1,
  "solcInputHash": "81feca9a3e5123bc293ec86263c1debf",
  "bytecode": "0x60806040526000805534801561001457600080fd5b50610429806100246000396000f3fe608060405234801561001057600080fd5b50600436106100415760003560e01c80630bd8599e146100465780635fcbd5b614610064578063a87d942c14610082575b600080fd5b61004e6100a0565b6040518082815260200191505060405180910390f35b61006c6101ad565b6040518082815260200191505060405180910390f35b61008a6102ba565b6040518082815260200191505060405180910390f35b60006100e36040518060400160405280601081526020017f636f756e7455703a20636f756e74203d000000000000000000000000000000008152506000546102c3565b600060016000540190506000548111610164576040517f08c379a00000000000000000000000000000000000000000000000000000000081526004018080602001828103825260108152602001807f55696e74323536206f766572666c6f770000000000000000000000000000000081525060200191505060405180910390fd5b806000819055507fa501f5a8ef1a812bff54fb3642cfaec066c351af1716c48a7bdd05e0bb631e676000546040518082815260200191505060405180910390a160005491505090565b60006101f06040518060400160405280601281526020017f636f756e74446f776e3a20636f756e74203d00000000000000000000000000008152506000546102c3565b600060016000540390506000548110610271576040517f08c379a00000000000000000000000000000000000000000000000000000000081526004018080602001828103825260118152602001807f55696e7432353620756e646572666c6f7700000000000000000000000000000081525060200191505060405180910390fd5b806000819055507fa501f5a8ef1a812bff54fb3642cfaec066c351af1716c48a7bdd05e0bb631e676000546040518082815260200191505060405180910390a160005491505090565b60008054905090565b6103c682826040516024018080602001838152602001828103825284818151815260200191508051906020019080838360005b838110156103115780820151818401526020810190506102f6565b50505050905090810190601f16801561033e5780820380516001836020036101000a031916815260200191505b5093505050506040516020818303038152906040527f9710a9d0000000000000000000000000000000000000000000000000000000007bffffffffffffffffffffffffffffffffffffffffffffffffffffffff19166020820180517bffffffffffffffffffffffffffffffffffffffffffffffffffffffff83818316178352505050506103ca565b5050565b60008151905060006a636f6e736f6c652e6c6f679050602083016000808483855afa505050505056fea264697066735822122010395a749443a4f943a8c347dffd1cd5144653c13b9900e4193afeb0d570ef7c64736f6c63430006080033",
  "devdoc": {
    "methods": {}
  },
  "userdoc": {
    "methods": {}
  },
  "storageLayout": {
    "storage": [
      {
        "astId": 5,
        "contract": "contracts/Counter.sol:Counter",
        "label": "count",
        "offset": 0,
        "slot": "0",
        "type": "t_uint256"
      }
    ],
    "types": {
      "t_uint256": {
        "encoding": "inplace",
        "label": "uint256",
        "numberOfBytes": "32"
      }
    }
  }
}